{
  "_format": "hh-sol-artifact-1",
  "contractName": "CrowdFundingAdapter",
  "sourceName": "contracts/adapters/CrowdFundingAdapter.sol",
  "abi": [
    {
      "inputs": [
        {
          "internalType": "address",
          "name": "adapterAddress",
          "type": "address"
        }
      ],
      "name": "AdapterGuard_ContractLocked",
      "type": "error"
    },
    {
      "inputs": [],
      "name": "CrowdFundingAdapter_InsufficientCrowdFundingBalance",
      "type": "error"
    },
    {
      "inputs": [],
      "name": "CrowdFundingAdapter_InsufficientGuildBalance",
      "type": "error"
    },
    {
      "inputs": [],
      "name": "CrowdFundingAdapter_InvalidCrowdFundingId",
      "type": "error"
    },
    {
      "inputs": [],
      "name": "CrowdFundingAdapter_InvalidProposalId",
      "type": "error"
    },
    {
      "inputs": [],
      "name": "CrowdFundingAdapter_NotWhitelistedToCrowdFundingId",
      "type": "error"
    },
    {
      "inputs": [],
      "name": "CrowdFundingAdapter_ProposalAlreadyProcessed",
      "type": "error"
    },
    {
      "inputs": [],
      "name": "DaoLibrary_InvalidDelegateKey",
      "type": "error"
    },
    {
      "inputs": [
        {
          "internalType": "address",
          "name": "memberAddress",
          "type": "address"
        }
      ],
      "name": "MemberGuard_NotMember",
      "type": "error"
    },
    {
      "anonymous": false,
      "inputs": [
        {
          "indexed": false,
          "internalType": "address",
          "name": "daoAddress",
          "type": "address"
        },
        {
          "indexed": false,
          "internalType": "address",
          "name": "senderAddress",
          "type": "address"
        },
        {
          "indexed": false,
          "internalType": "address",
          "name": "quoteAssetContributorAddress",
          "type": "address"
        },
        {
          "indexed": false,
          "internalType": "address",
          "name": "baseAssetReceiverAddress",
          "type": "address"
        },
        {
          "indexed": false,
          "internalType": "bytes32",
          "name": "crowdFundingId",
          "type": "bytes32"
        },
        {
          "indexed": false,
          "internalType": "uint256",
          "name": "quoteAssetContributionAmount",
          "type": "uint256"
        },
        {
          "indexed": false,
          "internalType": "uint256",
          "name": "baseAssetQuoteAmount",
          "type": "uint256"
        }
      ],
      "name": "ActCrowdFundingContributionEvent",
      "type": "event"
    },
    {
      "inputs": [
        {
          "internalType": "contract IDaoRegistry",
          "name": "daoRegistry",
          "type": "address"
        },
        {
          "internalType": "bytes32",
          "name": "crowdFundingId",
          "type": "bytes32"
        },
        {
          "internalType": "uint256",
          "name": "quoteAssetContributionAmount",
          "type": "uint256"
        },
        {
          "internalType": "address",
          "name": "quoteAssetContributorAddress",
          "type": "address"
        },
        {
          "internalType": "address",
          "name": "baseAssetReceiverAddress",
          "type": "address"
        }
      ],
      "name": "actContributeCrowdFunding",
      "outputs": [],
      "stateMutability": "nonpayable",
      "type": "function"
    },
    {
      "inputs": [
        {
          "internalType": "contract IDaoRegistry",
          "name": "daoRegistry",
          "type": "address"
        },
        {
          "internalType": "bytes32",
          "name": "crowdFundingId",
          "type": "bytes32"
        },
        {
          "internalType": "uint256",
          "name": "quoteAssetContributionAmount",
          "type": "uint256"
        },
        {
          "internalType": "address",
          "name": "quoteAssetContributorAddress",
          "type": "address"
        },
        {
          "internalType": "address",
          "name": "baseAssetReceiverAddress",
          "type": "address"
        },
        {
          "internalType": "uint256",
          "name": "deadline",
          "type": "uint256"
        },
        {
          "internalType": "uint8",
          "name": "v",
          "type": "uint8"
        },
        {
          "internalType": "bytes32",
          "name": "r",
          "type": "bytes32"
        },
        {
          "internalType": "bytes32",
          "name": "s",
          "type": "bytes32"
        }
      ],
      "name": "actContributeCrowdFundingWithPermit",
      "outputs": [],
      "stateMutability": "nonpayable",
      "type": "function"
    },
    {
      "inputs": [
        {
          "internalType": "address",
          "name": "daoRegistry",
          "type": "address"
        }
      ],
      "name": "getLockedAt",
      "outputs": [
        {
          "internalType": "uint256",
          "name": "",
          "type": "uint256"
        }
      ],
      "stateMutability": "view",
      "type": "function"
    },
    {
      "inputs": [
        {
          "internalType": "contract IDaoRegistry",
          "name": "dao",
          "type": "address"
        },
        {
          "internalType": "address",
          "name": "_addr",
          "type": "address"
        }
      ],
      "name": "isActiveMember",
      "outputs": [
        {
          "internalType": "bool",
          "name": "",
          "type": "bool"
        }
      ],
      "stateMutability": "view",
      "type": "function"
    }
  ],
  "bytecode": "0x6080806040523461001657611531908161001c8239f35b600080fdfe608080604052600436101561001357600080fd5b60003560e01c9081630e9863c214611051575080638ecf77201461100e57806395bd8ebd146107f957639c3264c71461004b57600080fd5b346105765760a036600319011261057657610064611094565b61006c6110aa565b6100746110c0565b6001600160a01b03831660009081526000805160206114dc833981519152602052604090205443146107d8576001600160a01b03831660008181526000805160206114dc83398151915260209081526040918290204390559051632c9f4b5b60e11b81527f3543410a3e2503a3ab2e9f8d723cf52b13a5d9bf51f3e3a8e96a4783d5d51b1a60048201529391849060249082905afa9283156105325760009361079c575b5060405163c939b17f60e01b81526024803560048301526020908290816001600160a01b0388165afa9081156105325760009161077d575b501561076b576040516302b4b08160e11b815260248035600483015233908201526020816044816001600160a01b0388165afa9081156105325760009161074c575b501561073a57604051632c9f4b5b60e11b81526000805160206114bc83398151915260048201526020816024816001600160a01b0389165afa90811561053257600091610700575b50604051634b3f3c0160e11b8152602480356004830152909490610140908690816001600160a01b0385165afa94851561053257600095610646575b5060e085015191821561063057604051633de222bb60e21b81526020818061024186600483016111a6565b03816001600160a01b0386165afa90811561053257600091610601575b506044358490046001600160a01b039091161080156105f0575b6105de5760808601516040516323b872dd60e01b81526001600160a01b0386811660048301523060248301526044803590830152909160209183916064918391600091165af18015610532576105af575b506001600160a01b0381163b15610576576040516339c6941f60e01b8152600081806102ff604435889004878d600485016111c2565b0381836001600160a01b0387165af18015610532576105a0575b506001600160a01b0381163b15610576576000604051809263036d74dd60e11b82528183816103528d8c8b6044350491600485016111c2565b03926001600160a01b03165af1801561053257610591575b5060a085015180836044350481031161057b578260443504900360a08601526040516103958161111d565b600081526001600160a01b0382163b15610576576040805163e248a12560e01b81526001600160a01b03891660048201528751602482015260208801516044820152908701519096600382101561056057606488019190915260608101516001600160a01b03908116608489015260808201511660a488015260a081015160c488015260c081015160e488015260e081015161010488015261010081015161012488015261012001516101448701526101806101648701528051610184870181905286916101a483019160209091019060005b81811061053e575060009492849003928492508591506001600160a01b03165af1928315610532577fe08f7ad52bb1026e39c919097a7b19f5a680a4c5e05ebfbbed978504ae1503199460e094610523575b50604080516001600160a01b0388811682523360208301529485169181019190915292166060830152602435608083015260443560a083018190520460c0820152a16001600160a01b031660009081526000805160206114dc8339815191526020526040812055005b61052c90611109565b386104ba565b6040513d6000823e3d90fd5b82516001600160a01b0316845289945060209384019390920191600101610468565b634e487b7160e01b600052602160045260246000fd5b600080fd5b634e487b7160e01b600052601160045260246000fd5b61059a90611109565b3861036a565b6105a990611109565b38610319565b6105d09060203d6020116105d7575b6105c88183611139565b81019061116f565b50386102c9565b503d6105be565b604051630aaf55bd60e01b8152600490fd5b50826044350460a087015110610278565b610623915060203d602011610629575b61061b8183611139565b810190611187565b3861025e565b503d610611565b634e487b7160e01b600052601260045260246000fd5b909450610140813d610140116106f8575b816106656101409383611139565b81010312610576576040519061067a826110d6565b8051825260208101516020830152604081015160038110156105765760408301526106a76060820161115b565b60608301526106b86080820161115b565b608083015260a081015160a083015260c081015160c083015260e081015160e0830152610100808201519083015261012080910151908201529338610216565b3d9150610657565b90506020813d602011610732575b8161071b60209383611139565b810103126105765761072c9061115b565b386101da565b3d915061070e565b6040516317845fd160e31b8152600490fd5b610765915060203d6020116105d7576105c88183611139565b38610192565b60405163a5dc3de760e01b8152600490fd5b610796915060203d6020116105d7576105c88183611139565b38610150565b9092506020813d6020116107d0575b816107b860209383611139565b81010312610576576107c99061115b565b9138610118565b3d91506107ab565b60405163556047a760e01b81526001600160a01b0384166004820152602490fd5b346105765761012036600319011261057657610813611094565b61081b6110aa565b6108236110c0565b60c4359060ff82168203610576576001600160a01b03841660009081526000805160206114dc83398151915260205260409020544314610fed576001600160a01b03841660008181526000805160206114dc8339815191526020908152604080832043905551632c9f4b5b60e11b81527f3543410a3e2503a3ab2e9f8d723cf52b13a5d9bf51f3e3a8e96a4783d5d51b1a60048201529192829060249082905afa90811561053257600091610fb3575b5060405163c939b17f60e01b81526024803560048301526020908290816001600160a01b0386165afa90811561053257600091610f94575b501561076b576040516302b4b08160e11b815260248035600483015233908201526020816044816001600160a01b0386165afa90811561053257600091610f75575b501561073a57604051632c9f4b5b60e11b81526000805160206114bc8339815191526004820152906020826024816001600160a01b038b165afa91821561053257600092610f39575b50604051634b3f3c0160e11b8152602480356004830152909290610140908490816001600160a01b0386165afa92831561053257600093610e7d575b5060e083015195861561063057604051633de222bb60e21b8152602081806109fd87600483016111a6565b03816001600160a01b0387165afa90811561053257600091610e5e575b506044358890046001600160a01b03909116108015610e4d575b6105de5760e435610dc2575b5060808301516040516323b872dd60e01b81526001600160a01b03898116600483015230602483015260448035908301529091602091839160649183918a91165af18015610d9857610da3575b506001600160a01b0381163b15610d49576040516339c6941f60e01b8152848180610ac26044358b9004878e600485016111c2565b0381836001600160a01b0387165af18015610d9857908591610d84575b50506001600160a01b0381163b15610d49578388610b1c9287838a6040519687958694859363036d74dd60e11b85526044350491600485016111c2565b03926001600160a01b03165af18015610d7957908491610d61575b505060a0820151808660443504810311610d4d578560443504900360a0830152604051610b638161111d565b8381526001600160a01b0382163b15610d49576040805163e248a12560e01b81526001600160a01b038a1660048201528451602482015260208501516044820152908401519093906003811015610d3557606485015260608101516001600160a01b03908116608486015260808201511660a485015260a081015160c485015260c081015160e485015260e08101516101048501526101008101516101248501526101200151610144840152610180610164840152805161018484018190528492849290916101a484019160200190855b818110610d105750505082900390829084906001600160a01b03165af18015610d0557610cee575b604080516001600160a01b038089168252336020830152808816928201929092529084166060820152602435608082015260443560a0820181905285900460c082015286907fe08f7ad52bb1026e39c919097a7b19f5a680a4c5e05ebfbbed978504ae1503199060e090a16001600160a01b031660009081526000805160206114dc8339815191526020526040812055005b610cf88291611109565b610d025780610c5c565b80fd5b6040513d84823e3d90fd5b82516001600160a01b0316845288965087955060209384019390920191600101610c34565b634e487b7160e01b86526021600452602486fd5b8380fd5b634e487b7160e01b84526011600452602484fd5b610d6a90611109565b610d75578288610b37565b8280fd5b6040513d86823e3d90fd5b610d8d90611109565b610d49578389610adf565b6040513d87823e3d90fd5b610dbb9060203d6020116105d7576105c88183611139565b5088610a8d565b60808401516001600160a01b0316803b156105765760ff9160e48a60008094604051968795869463d505accf60e01b865260018060a01b03166004860152306024860152604435604486015260a4356064860152166084840152833560a48401526101043560c48401525af180156105325715610a4057610e44919450611109565b60009288610a40565b50866044350460a085015110610a34565b610e77915060203d6020116106295761061b8183611139565b8a610a1a565b909250610140813d61014011610f31575b81610e9c6101409383611139565b810103126105765760405190610eb1826110d6565b8051825260208101516020830152604081015190600382101561057657610120916040840152610ee36060820161115b565b6060840152610ef46080820161115b565b608084015260a081015160a084015260c081015160c084015260e081015160e08401526101008082015190840152015161012082015291886109d2565b3d9150610e8e565b9091506020813d602011610f6d575b81610f5560209383611139565b8101031261057657610f669061115b565b9087610996565b3d9150610f48565b610f8e915060203d6020116105d7576105c88183611139565b8761094d565b610fad915060203d6020116105d7576105c88183611139565b8761090b565b90506020813d602011610fe5575b81610fce60209383611139565b8101031261057657610fdf9061115b565b866108d3565b3d9150610fc1565b60405163556047a760e01b81526001600160a01b0385166004820152602490fd5b3461057657604036600319011261057657611027611094565b602435906001600160a01b038216820361057657602091611047916111ed565b6040519015158152f35b34610576576020366003190112610576576020906001600160a01b03611075611094565b166000526000805160206114dc83398151915282526040600020548152f35b600435906001600160a01b038216820361057657565b606435906001600160a01b038216820361057657565b608435906001600160a01b038216820361057657565b610140810190811067ffffffffffffffff8211176110f357604052565b634e487b7160e01b600052604160045260246000fd5b67ffffffffffffffff81116110f357604052565b6020810190811067ffffffffffffffff8211176110f357604052565b90601f8019910116810190811067ffffffffffffffff8211176110f357604052565b51906001600160a01b038216820361057657565b90816020910312610576575180151581036105765790565b9081602091031261057657516001600160a01b03811681036105765790565b6001600160a01b039091168152620ff1ce602082015260400190565b6001600160a01b03918216815291166020820152620ff1ce6040820152606081019190915260800190565b60408051630173a4e160e71b81526000805160206114bc833981519152600480830191909152919391926020926001600160a01b039290918316908481602481855afa9081156114b057908491600091611479575b50168061129f57508392916024918751968794859363288c314960e21b855216908301525afa928315611295575060009261127c57505090565b6112929250803d106105d7576105c88183611139565b90565b513d6000823e3d90fd5b8387949593929697519263644ddc5d60e11b845216808884015283836024818a5afa92831561146e57600093611437575b50845163397a694760e01b815288810182905284816024818b5afa90811561142c579087916000916113f5575b50168181888616141591826113ea575b50506113da578390602486518099819363288c314960e21b83528c8301525afa9586156113cf576000966113b0575b508561134d575b5050505050905090565b83955061136f9496839451809681948293633de222bb60e21b845283016111a6565b03915afa9283156112955750600092611393575b5050161515803880808080611343565b6113a99250803d106106295761061b8183611139565b3880611383565b6113c8919650833d85116105d7576105c88183611139565b943861133c565b84513d6000823e3d90fd5b845163b5cb5c1960e01b81528890fd5b14159050813861130d565b91508582813d8311611425575b61140c8183611139565b81010312610d02575061141f879161115b565b386112fd565b503d611402565b86513d6000823e3d90fd5b90928482813d8311611467575b61144e8183611139565b81010312610d0257506114609061115b565b91386112d0565b503d611444565b85513d6000823e3d90fd5b91508582813d83116114a9575b6114908183611139565b81010312610d0257506114a3849161115b565b38611242565b503d611486565b87513d6000823e3d90fdfe6737fda3f70f5680a9d22dde78c4013c2b5e06b773dc56aa21cc971230a0ed882f67b9f9859e95601de4602371a01cbdd4e74c73cc29fbd5f30dc2e071c09b14a26469706673582212209ad75f5fc92857440dc545d551343bb567f8ac77506d0262c2d4168b11d240f664736f6c63430008110033",
  "linkReferences": {},
  "deployedLinkReferences": {}
}